:1000000009C016C015C014C013C012C011C010C062
:100010000FC00EC011241FBECFE9CDBF20E0A0E667
:10002000B0E001C01D92A136B207E1F70AD06CC062
:10003000E7CFB09B03C0C298C19A0895C29AC198F5
:100040000895BB98B898BC9AC49ABA9AC29AB99AB9
:10005000C19A2FEF35EA8EE0215030408040E1F721
:1000600000C00000C298C198D1E0B39B03C0D093F8
:10007000600042C080916000813019F010926000F1
:100080003BC0C4988FEB9DE50197F1F700C00000DD
:10009000C49A86E0C29AC19A9FEF20EE30E0915058
:1000A00020403040E1F700C00000C298C1989FEFA7
:1000B00020EE30E0915020403040E1F700C00000D9
:1000C000815041F7B6DFC4E0C298C1988FEF9DEE32
:1000D00022E0815090402040E1F700C00000A9DFFD
:1000E0003FEF8DEE92E0315080409040E1F700C04C
:1000F0000000C15049F7C2CF9CDF8FEB9DE501970F
:0C010000F1F700C00000B1CFF894FFCF71
:00000001FF
