:1000000009C016C015C014C013C012C011C010C062
:100010000FC00EC011241FBECFE9CDBF20E0A0E667
:10002000B0E001C01D92A136B207E1F702D03FC097
:10003000E7CFBB98B898BC9AC49ABA9AC29AB99AB0
:10004000C19A2FEF3BE48DE1215030408040E1F731
:1000500000C00000C298C19881E0B39B03C08093A8
:10006000600017C090916000913089F4C498EFEB64
:10007000FDE53197F1F700C00000C49AFFEF2DEEC7
:1000800032E0F15020403040E1F700C00000109213
:100090006000B09B03C0C298C19A02C0C29AC198C6
:1000A000EFEBFDE53197F1F700C00000D6CFF894F3
:0200B000FFCF80
:00000001FF
