:1000000009C016C015C014C013C012C011C010C062
:100010000FC00EC011241FBECFE9CDBF20E0A0E667
:10002000B0E001C01D92A136B207E1F702D042C094
:10003000E7CFBB98B898BC9AC49ABA9AC29AB99AB0
:10004000C19A2FEF3BE48DE1215030408040E1F731
:1000500000C00000C298C19881E0B39B03C0109219
:10006000600002C080936000B09B03C0C298C19A38
:1000700002C0C29AC198909160009130A1F4C498D6
:100080009FEFE6E7F1E09150E040F040E1F700C07B
:100090000000C49A2FEF3BE49DE121503040904096
:1000A000E1F700C00000EFEBFDE53197F1F700C08C
:0800B0000000D3CFF894FFCF4C
:00000001FF
